:040000008A15002835
:0E000600213083120313FD00FD0B07280800B4
:100014000F3083120313FC004730FD00FD0B102842
:0A002400FC0B10280000000008008B
:06002E00000000000800C4
:0E003400F201F101F001F801F30100300800C3
:100042007B15FB1F2B280130F300F201F101F001B7
:08005200FA0DF20CFF3008006A
:10005A0083160313E81B3428831287133628831266
:10006A0087178316681B3C28831207133E288312BE
:10007A0007178316E81A4428831287124628831220
:10008A0087168316681A4C28831207124E28831281
:10009A0007168316511854288312071556288312F7
:1000AA0007118715172087118316E8195F2883120D
:1000BA0087136128831287178316681967288312A2
:1000CA0007136928831207178316E8186F28831203
:1000DA008712712883128716831668187728831265
:1000EA000712792883120716831651187F2883125C
:1000FA000715812883120711871517208711831680
:0C010A00511C89280A208A2803200800C4
:08011600FA1FF213003008008B
:10011E00403083120313F0001F30F100F201F3019F
:02012E000800C7
:10013000831203132230FC00F801F901FA01FB01DC
:10014000FC030319CE280310FB0CFA0CF90CF80C75
:10015000F30CF20CF10CF00C031CA028FC030319A7
:10016000C0287408F80775080318750FF907760892
:100170000318760FFA0777080318770FFB07A428F0
:100180007408F80775080318750FF907760803183F
:0E019000760FFA0777080318770FFB070800B1
:10019E0083120313FB01FA01F901F801A001730D9B
:1001AE00F80D7408F8027508031C750FF90276082D
:1001BE00031C760FFA027708031C770FFB0200016F
:1001CE00031C0130A002F30D0730FC00730DF80D77
:1001DE00F90DFA0DFB0DA00D7408731C0829F80219
:1001EE007508031C750FF9027608031C760FFA02C8
:1001FE007708031C770FFB020001031C0130A002DD
:10020E001929F80775080318750FF90776080318EA
:10021E00760FFA0777080318770FFB07000103180C
:10022E000130A007F30DFC0BED28720DF80DF90D42
:10023E00FA0DFB0DA00D7408731C3729F802750812
:10024E00031C750FF9027608031C760FFA02770865
:10025E00031C770FFB020001031C0130A00248298A
:10026E00F80775080318750FF90776080318760F47
:10027E00FA0777080318770FFB0700010318013000
:10028E00A007F20D0730FC00720DF80DF90DFA0DF6
:10029E00FB0DA00D7408721C6629F8027508031C6C
:1002AE00750FF9027608031C760FFA027708031C05
:1002BE00770FFB020001031C0130A0027729F8071B
:1002CE0075080318750FF90776080318760FFA07E5
:1002DE0077080318770FFB07000103180130A007FA
:1002EE00F20DFC0B4B29710DF80DF90DFA0DFB0DEE
:1002FE00A00D7408721C9529F8027508031C750F61
:10030E00F9027608031C760FFA027708031C770FA2
:10031E00FB020001031C0130A002A629F807750894
:10032E000318750FF90776080318760FFA07770882
:10033E000318770FFB07000103180130A007F10D1A
:10034E000730FC00710DF80DF90DFA0DFB0DA00D27
:10035E007408711CC429F8027508031C750FF90284
:10036E007608031C760FFA027708031C770FFB0240
:10037E000001031C0130A002D529F80775080318E7
:10038E00750FF90776080318760FFA077708031822
:10039E00770FFB07000103180130A007F10DFC0BCE
:1003AE00A929700DF80DF90DFA0DFB0DA00D7408AD
:1003BE00711CF329F8027508031C750FF9027608F3
:1003CE00031C760FFA027708031C770FFB0200015D
:1003DE00031C0130A002042AF80775080318750FD4
:1003EE00F90776080318760FFA0777080318770FC0
:1003FE00FB07000103180130A007F00D0730FC00C9
:10040E00700DF80DF90DFA0DFB0DA00D7408701C92
:10041E00222AF8027508031C750FF9027608031CD0
:10042E00760FFA027708031C770FFB020001031CFC
:10043E000130A002332AF80775080318750FF90763
:10044E0076080318760FFA0777080318770FFB075D
:10045E00000103180130A007F00DFC0B072A7018DD
:10046E00462A7408F80775080318750FF9077608F9
:10047E000318760FFA0777080318770FFB070800A3
:10048E0083120313F801F9011030FC00710DF80D01
:10049E00F90D7408F8027508031C750FF90203189C
:1004AE005F2A7408F80775080318750FF90703100B
:0A04BE00F00DF10DFC0B4D2A0800B3
:1004C80083160313E703E7036708003C0318712A40
:1004D800E703000000000000682A00000000000098
:0604E80000000000080006
:1004EE00A1017208031D8C2A7108F2007008F10038
:1004FE00F001A1157208031D8C2A7108F200F1019A
:10050E00A1112116720803199A2A2108F302031D5C
:10051E00031C9E2A0310F21BA22AF00DF10DF20D00
:10052E00F30B922A9E2A0130FC001A20A52A0230D3
:0E053E00FC002120A52A0430FC008B200800C0
:10054C008316031351106708E8002D2083165114ED
:02055C00080095
:10055E000E3083120313FD00FD0BB32A00000800BA
:10056E00FB14FB1FC12AFF30F300F200F100F00074
:08057E00FA0DF20CFF30080039
:100586007B14FB1FCE2AF201FA1FFF30F200F100A6
:0A059600F000FA0DF20CFF3008002F
:1005A00083120313FB017308031D77080319272B1C
:1005B00072087606FA007708F3077E30031CE42AF7
:1005C000F30203182A2BE72AF302031C2D2B7208CF
:1005D000F8007108FC007008FD00F817F61703100A
:1005E000F201F101F0011830A1007D1C012B74080B
:1005F000F00775080318750FF10776080318760FD2
:10060000F207F20CF10CF00CF80CFC0CFD0C0310D2
:10061000A10BF52AF21B112BF80DF00DF10DF20DC7
:10062000F3037B1B701C232BF81F232BF00A0319E9
:10063000F10A0319F20A031D232BF20CF10CF00C42
:10064000F30A03192A2BFA1FF21300302F2B013063
:100650001A202F2B0230B7222F2B0430212000002C
:02066000080090
:10066200432B803083160313DB00562BC030DB0094
:10067200562B9430DB00562BD430DB00562B8030C7
:10068200DB00562B831603135B08013A0319322B46
:100692005B08023A0319372B5B08033A03193A2B1A
:1006A2005B08043A03193D2B402B5C03F0005B0806
:1006B200F0077008DB007008E8002D208316511047
:1006C200DE015E085D07840000080319702B5E08D6
:1006D2005D0784000008E700A622DE0A622B51149F
:0206E20008000E
:1006E40083120313FB01FC01FA0173080319B12BF4
:1006F400F2178E30F302F31B822B0319822BB42BD7
:10070400F309F30A08307302031C972BF300F10D6D
:100714007208F100F20108307302031C972BF10DEB
:10072400F1017308031D03109F2B730803199F2BFA
:100734000310F20CF10CF30B9A2B7B1B711CA92BED
:10074400031CA92BF10A0319F20AF21BC02BFA1F8E
:10075400C32BF209F109F10A0319F20AC32BF201BE
:10076400F101C32B7B14FB1FC62BF201FA1FC62B0E
:10077400FF30F200F100FA0DF20CC62B0130FC0040
:10078400C82B0030FC00C82BFF30FC00FC08031908
:0E079400CC2BC3227108F0007208F10008009F
:1007A200831203139F01C0309F0483161F179F17E4
:1007B2005B08F000F00D7010F00D7010F00D70106D
:1007C200700883129F041F14AF221F151F1DEB2BED
:1007D2000000E72B1F101E08F100F00183161E080F
:0807E200F0040030F1040800EE
:0E07EA008316031358088A005708820008007F
:1007F800831203137008F8007108F000F101F20188
:10080800F301FB01FC019630F300FA017008F100D6
:0C0818007808F000F801F20177220800D7
:100824008F20E830F4000330F500F601F70198203A
:1008340070088316E3007108E4007208E500730889
:10084400E6005B08F4005C08F500F601F701CF2030
:1008540070088316E3007108E4007208E500730869
:10086400E6007008F5007108F6007208F7007308D6
:10087400F800F80CF70CF60CF50CF813F80CF70C60
:10088400F60CF50CF8137508F0007608F1007708FB
:10089400F2007808F300F30CF20CF10CF00CF313F3
:1008A4007008DF007108E0008F2083165D08F400F3
:1008B4005E08F500F601F701982083165F08F90039
:1008C4006008FA00FB01FC010330F8007908F40029
:1008D4007A08F5007B08F6007C08F700780803190D
:1008E4007A2CF40DF50DF60DF70D7410FF3E712CF6
:1008F400CF2070088316E3007108E4007208E50055
:100904007308E6000A30F4000030F5005F08F000D8
:100914006008F100472270088316DF007108E000C8
:1009240000307102031D982C0330700203189B2CB5
:10093400E82C540884006608003C031DAB2C6508B1
:10094400003C031DAB2C6408003C031DAB2C630866
:10095400003C0318E62C5308800460080319C22CD9
:10096400E101E20100306202031DBA2C6008610259
:100974000318C22CE7016422E10A0319E20AB42C29
:100984005F08E70064225208800560080319DA2C26
:10099400E101E20100306202031DD22C6008610211
:1009A4000318DA2CE7016422E10A0319E20ACC2CC9
:1009B4005F08E70064220130E302031CE402031C25
:0E09C400E502031CE6029D2C52088005080087
:1009D200FB2C803083160313DB000E2DC030DB00AE
:1009E2000E2D9430DB000E2DD430DB000E2D803026
:1009F200DB000E2D831603135B08013A0319EA2C60
:100A02005B08023A0319EF2C5B08033A0319F22C34
:100A12005B08043A0319F52CF82C5C03F0005B0820
:100A2200F0077008DB0051147008E8002D208316CF
:0E0A320051105D08E8002D20831651140800B5
:100A400083120313FD01F8017008031900347406C2
:100A5000FA00FA1BFD09FB01F41F302DF409F40A1A
:100A6000F01F342DF009F00A70087404FA00FA1B24
:100A7000582D7408F802F00D700DF80D7408F80781
:100A8000F00D0630FC00700DF80D74087018F802B7
:100A9000701CF807F00DFC0B432D701CF8077B1839
:100AA000662DFD1F0034F009F00AF809F80A003439
:100AB000F41F632DF01B602D7008F800F001512D1C
:100AC000F001F00A0034F009FB0A392DF80A740825
:100AD0007802031D512DF801F00AF01F512DFF344B
:020AE00008000C
:100AE20083120313A20380302206F0008030003A02
:100AF20070020318862DA201860102308316DB00E4
:100B02000E30DC002730DD0031230A30F40083127E
:100B12002208F00020257808F00070088316CB0028
:100B2200303070078312AE000A30F4002208F00061
:100B3200202570088316CC00303070078312AD0078
:100B420001308316DB000130DC002D30DD00312363
:100B5200CC01CB010630FB001330FC00AD30FD00B0
:100B6200FD0BB12DFC0BB12DFB0BB12D00000000D4
:020B7200080079
:100B740083120313A20A0A30F4002208F00020258D
:100B84007808F00070088316CB00303070078312A9
:100B9400AE000A30F4002208F00020257008831605
:100BA400CC00303070078312AD0001308316DB00B7
:100BB4000130DC002D30DD003123CC01CB010630C7
:100BC400FB001330FC00AD30FD00FD0BE72DFC0BEA
:0C0BD400E72DFB0BE72D000000000800DF
:100BE00083160313DB01D1237008D5007108D600EA
:100BF000FC235A30F400F530F5007930F6007D30F2
:100C0000F700D022722370088316D9007108DA0029
:100C10005908D5005A08D6000A30F4000030F50013
:100C20005908F0005A08F100472270088316CD00D9
:100C3000303070078312AD000A30F4000030F50048
:100C400083165908F0005A08F10047227808F0008E
:100C50007908F10070088316CD00303070078312D8
:100C6000AE001A30FC00F830FD00FD0B352EFC0BF9
:100C7000352E000001308316DB000630DC002D30FD
:100C8000DD0031230130DB000830DC00DF30DD0027
:100C9000E92400305602031D4F2E1E305502031C5E
:100CA0006F2E8312861002308316DB000E30DC00BC
:100CB0003630DD0031231A30FC00F830FD00FD0B2A
:100CC0005F2EFC0B5F2E0000831206150230831688
:100CD000DB000F30DC003430DD003123BA2E003071
:100CE0005602031D752E19305502031C9D2E560801
:100CF000003C031D7D2E55081D3C031C9D2E8312B8
:100D0000861402308316DB000E30DC003230DD004A
:100D100031231A30FC00F830FD00FD0B8D2EFC0B4A
:100D20008D2E00008312061102308316DB000F3077
:100D3000DC002B30DD003123BA2E83128610023006
:100D40008316DB000F30DC002530DD0031231A3044
:100D5000FC00F830FD00FD0BAB2EFC0BAB2E0000B1
:100D60008312061102308316DB000E30DC002330C4
:060D7000DD003123080044
:100D7600831603135908D4005A08F1000130F00015
:100D860071080319CA2EF00D7010FF3EC42E7008AC
:100D9600D300F0097008D20080305907840070082B
:0A0DA6008005841370088005080022
:100DB000FF3083160313CE00FF30CF00FF30D0008A
:100DC000FF3083129F01C0309F0483161F179F17A7
:060DD00083121F1408004D
:100DD6008316031387110711071287120713871348
:100DE60083128711071187130713871207120A2028
:100DF6000A200A20871607168715172087110A204A
:100E06008715172087110A208715172087110A20B2
:100E160007128715172087110A20871517208711B3
:100E2600871287178715172087110A208713071639
:100E360087151720871107128715172087110A2093
:100E460087151720871107168715172087110A207F
:100E56000712871517208711871707178716071692
:0E0E66008715172087110A20831651140800E3
:100E7400F5238A110A128000840AD70A0319D80AB2
:080E8400F003031D3A2F0800E2
:100E8C0083120313061106194D2F86104E2F86144C
:100E9C008618522F0610532F061401308316E800C3
:100EAC002D2001308316DB000130DC005330DD00D7
:100EBC003123CA30DB000130DC00FA30DD00DE010A
:100ECC0012246430DB000130DC00FA30DD00DE017E
:100EDC0012248312851E962F01308316E8002D20D4
:100EEC0001308316DB000130DC004230DD003123A1
:100EFC001A30FC00F830FD00FD0B822FFC0B822F0A
:100F0C0000000230DB000130DC003830DD00312322
:100F1C000230DB000A30DC00C830DD003123972FB3
:040F2C00532F080037
:10100000E4203F3083160313850086018E309F0055
:10101000831286018A11EB268A158A11D8268A1531
:1010200006308316D9000730DA008A11BB268A15EC
:101030000C30E8008A112D208A1501308316E80053
:101040008A112D208A1501308316DB000130DC0067
:10105000B130DD008A1131238A150330FB000830DE
:10106000FC007730FD00FD0B3328FC0B3328FB0B15
:1010700033280230DB000130DC006130DD008A11F2
:1010800031238A150B30FB002630FC005D30FD005B
:10109000FD0B4828FC0B4828FB0B482800000000EB
:1010A0000130E8008A112D208A1501308316DB00FB
:1010B0000130DC00A030DD008A1131238A151A309E
:1010C000FC00F830FD00FD0B6328FC0B63280000DA
:1010D0000230DB000130DC00BC30DD008A1131233E
:1010E0008A150230DB000A30DC00C830DD008A11CE
:1010F00031238A158A11F0258A158312851C8328CD
:101100008A11BA258A158312051D89288A1171252D
:101110008A158312051A8F288A1146278A15831289
:1011200003138519A82806141A30FC00F830FD00B6
:10113000FD0B9828FC0B9828000002308316DB007A
:101140001030DC00C630DD008A1131238A15BD283D
:10115000831206101A30FC00F830FD00FD0BAE289B
:10116000FC0BAE28000002308316DB001030DC00E0
:101170006E30DD008A1131238A150230FB00043005
:10118000FC00BA30FD00FD0BC328FC0BC328FB0B91
:08119000C32800007A28CB28D7
:1011C800223084003F3083120313F00098308316D6
:1011D800D7000730D8008A113A278A15A030840032
:1011E80011300313F000EC308316D7000730D80015
:1011F8008A113A278A15613084000D300313F000F4
:10120800D1308316D7000830D8008A113A278A15BA
:10121800B130840015300313F000D7308316D7009F
:101228000730D8008A113A278A156E3084000230B8
:101238000313F000FD308316D7000730D8008A1159
:101248003A278A15C630840005300313F000DE30D3
:101258008316D7000830D8008A113A278A15080063
:020F300000348B
:040F32002034003433
:040F3600203400342F
:080F3A0020342034203400347F
:040F42002034003423
:0A0F460030343034203443340034DA
:040F500046340034EF
:040F540041340034F0
:040F5800203400340D
:100F5C00503452344534533445344E344334453490
:040F6C003A340034DF
:100F7000543445344D3450343A3420342034203401
:100F8000203420345334543441345434553453349D
:020F900000342B
:100F920046346934723465342034443465347434EC
:0C0FA20065346334743465346434003406
:100FAE0053344D34413452345434203448344F3455
:060FBE004D3445340034FF
:100FC400503452344534533445344E344334453428
:040FD4003A34003477
:100FD800543445344D3450343A3420342034203499
:100FE8002034203453345434413454345534533435
:020FF8000034C3
:040FFA00203400346B
:1011A20049344E3449345434493441344C3449344A
:0A11B2005A3449344E3447340034F7
:0411BC004C3400347B
:0611C0003034303400342D
:02400E004A2F37
:00000001FF
