:040000008A15002835
:0E000600213083120313FD00FD0B07280800B4
:100014000F3083120313FC004730FD00FD0B102842
:0A002400FC0B10280000000008008B
:06002E00000000000800C4
:1000340083160313EB1B21288312871323288312AF
:10004400871783166B1B2928831207132B28831207
:1000540007178316EB1A3128831287123328831269
:10006400871683166B1A3928831207123B288312CA
:10007400071683165818412883120715432883123C
:1000840007118715172087118316EB194C28831243
:1000940087134E288312871783166B1954288312EB
:1000A40007135628831207178316EB185C2883124C
:1000B40087125E288312871683166B1864288312AE
:1000C4000712662883120716831658186C288312A1
:1000D40007156E28831207118715172087118316B9
:0C00E400581C76280A207728032008000A
:0800F000FA1FF21300300800B2
:1000F8007B15FB1F86280130F300F201F101F001A6
:08010800FA0DF20CFF300800B3
:0E011000F201F101F001F801F30100300800E6
:10011E0083120313F801F9011030FC00710DF80D74
:10012E00F90D7408F8027508031C750FF90203180F
:10013E00A7287408F80775080318750FF907031038
:0A014E00F00DF10DFC0B95280800E0
:10015800FB14FB1FB628FF30F300F200F100F0009B
:08016800FA0DF20CFF30080053
:0E017000831603135B088A005A0882000800F9
:10017E00831203132230FC00F801F901FA01FB018E
:10018E00FC030319F5280310FB0CFA0CF90CF80C00
:10019E00F30CF20CF10CF00C031CC728FC03031932
:1001AE00E7287408F80775080318750FF90776081D
:1001BE000318760FFA0777080318770FFB07CB287B
:1001CE007408F80775080318750FF90776080318F1
:0E01DE00760FFA0777080318770FFB07080063
:1001EC000E3083120313FD00FD0BFA2800000800EB
:1001FC0083160313EA03EA036A08003C03180B296D
:10020C00EA030000000000000229000000000000CA
:06021C00000000000800D4
:100222007B14FB1F1C29F201FA1FFF30F200F100C0
:0A023200F000FA0DF20CFF30080096
:10023C00403083120313F0001F30F100F201F30180
:02024C000800A8
:10024E00A1017208031D3C297108F2007008F1002B
:10025E00F001A1157208031D3C297108F200F1018D
:10026E00A1112116720803194A292108F302031D50
:10027E00031C4E290310F21B5229F00DF10DF20D45
:10028E00F30B42294E290130FC00882055290230FB
:0E029E00FC007C2055290430FC00782008006C
:1002AC0083120313FB01FA01F901F801A001730D8C
:1002BC00F80D7408F8027508031C750FF90276081E
:1002CC00031C760FFA027708031C770FFB02000160
:1002DC00031C0130A002F30D0730FC00730DF80D68
:1002EC00F90DFA0DFB0DA00D7408731C8F29F80283
:1002FC007508031C750FF9027608031C760FFA02B9
:10030C007708031C770FFB020001031C0130A002CD
:10031C00A029F80775080318750FF9077608031854
:10032C00760FFA0777080318770FFB0700010318FD
:10033C000130A007F30DFC0B7429720DF80DF90DAB
:10034C00FA0DFB0DA00D7408731CBE29F80275087C
:10035C00031C750FF9027608031C760FFA02770856
:10036C00031C770FFB020001031C0130A002CF29F4
:10037C00F80775080318750FF90776080318760F38
:10038C00FA0777080318770FFB07000103180130F1
:10039C00A007F20D0730FC00720DF80DF90DFA0DE7
:1003AC00FB0DA00D7408721CED29F8027508031CD6
:1003BC00750FF9027608031C760FFA027708031CF6
:1003CC00770FFB020001031C0130A002FE29F80785
:1003DC0075080318750FF90776080318760FFA07D6
:1003EC0077080318770FFB07000103180130A007EB
:1003FC00F20DFC0BD229710DF80DF90DFA0DFB0D58
:10040C00A00D7408721C1C2AF8027508031C750FC9
:10041C00F9027608031C760FFA027708031C770F93
:10042C00FB020001031C0130A0022D2AF8077508FD
:10043C000318750FF90776080318760FFA07770873
:10044C000318770FFB07000103180130A007F10D0B
:10045C000730FC00710DF80DF90DFA0DFB0DA00D18
:10046C007408711C4B2AF8027508031C750FF902ED
:10047C007608031C760FFA027708031C770FFB0231
:10048C000001031C0130A0025C2AF8077508031850
:10049C00750FF90776080318760FFA077708031813
:1004AC00770FFB07000103180130A007F10DFC0BBF
:1004BC00302A700DF80DF90DFA0DFB0DA00D740816
:1004CC00711C7A2AF8027508031C750FF90276085C
:1004DC00031C760FFA027708031C770FFB0200014E
:1004EC00031C0130A0028B2AF80775080318750F3E
:1004FC00F90776080318760FFA0777080318770FB1
:10050C00FB07000103180130A007F00D0730FC00B9
:10051C00700DF80DF90DFA0DFB0DA00D7408701C83
:10052C00A92AF8027508031C750FF9027608031C3A
:10053C00760FFA027708031C770FFB020001031CED
:10054C000130A002BA2AF80775080318750FF907CD
:10055C0076080318760FFA0777080318770FFB074E
:10056C00000103180130A007F00DFC0B8E2A701847
:10057C00CD2A7408F80775080318750FF907760863
:10058C000318760FFA0777080318770FFB07080094
:10059C008316031358106A08EB001A20831658149C
:0205AC00080045
:1005AE00831203139F01C0309F0483161F179F17DA
:1005BE005E08F000F00D7010F00D7010F00D701060
:1005CE00700883129F041F14F6201F151F1DF12A99
:1005DE000000ED2A1F101E08F100F00183161E0800
:0805EE00F0040030F1040800E4
:1005F6001E21E830F4000330F500F601F701BF20B4
:1006060070088316E6007108E7007208E8007308B0
:10061600E9005E08F4005F08F500F601F7015621CF
:1006260070088316E6007108E7007208E800730890
:10063600E9007008F5007108F6007208F700730803
:10064600F800F80CF70CF60CF50CF813F80CF70C90
:10065600F60CF50CF8137508F0007608F10077082B
:10066600F2007808F300F30CF20CF10CF00CF31323
:100676007008E2007108E3001E2183166008F4008A
:100686006108F500F601F701BF2083166208F9003C
:100696006308FA00FB01FC010330F8007908F40056
:1006A6007A08F5007B08F6007C08F700780803193D
:1006B600632BF40DF50DF60DF70D7410FF3E5A2B56
:1006C600562170088316E6007108E7007208E800F4
:1006D6007308E9000A30F4000030F5006208F00003
:1006E6006308F1008F2070088316E2007108E300AA
:1006F60000307102031D812B033070020318842B16
:10070600D12B590884006908003C031D942B680806
:10071600003C031D942B6708003C031D942B6608C0
:10072600003C0318CF2B5608800463080319AB2B33
:10073600E401E50100306502031DA32B6308640292
:100746000318AB2BEA01FE20E40A0319E50A9D2BE8
:100756006208EA00FE205708800563080319C32BC8
:10076600E401E50100306502031DBB2B630864024A
:100776000318C32BEA01FE20E40A0319E50AB52B88
:100786006208EA00FE200130E602031CE702031CB1
:0E079600E802031CE902862B570880050800C4
:1007A400E42B803083160313DE00F72BC030DE0009
:1007B400F72B9430DE00F72BD430DE00F72B80309B
:1007C400DE00F72B831603135E08013A0319D32BBB
:1007D4005E08023A0319D82B5E08033A0319DB2B8F
:1007E4005E08043A0319DE2BE12B5F03F0005E0878
:1007F400F0077008DE0058147008EB001A20831606
:0E08040058106008EB001A20831658140800E4
:1008120083120313FD01F8017008031900347406F2
:10082200FA00FA1BFD09FB01F41F192CF409F40A62
:10083200F01F1D2CF009F00A70087404FA00FA1B6C
:10084200412C7408F802F00D700DF80D7408F807C9
:10085200F00D0630FC00700DF80D74087018F802E7
:10086200701CF807F00DFC0B2C2C701CF8077B1881
:100872004F2CFD1F0034F009F00AF809F80A003481
:10088200F41F4C2CF01B492C7008F800F0013A2C94
:10089200F001F00A0034F009FB0A222CF80A74086D
:1008A2007802031D3A2CF801F00AF01F3A2CFF34AB
:0208B20008003C
:1008B40083120313FB01FC01FA0173080319992C39
:1008C400F2178E30F302F31B6A2C03196A2C9C2C4A
:1008D400F309F30A08307302031C7F2CF300F10DB3
:1008E4007208F100F20108307302031C7F2CF10D31
:1008F400F1017308031D0310872C73080319872C57
:100904000310F20CF10CF30B822C7B1B711C912C49
:10091400031C912CF10A0319F20AF21BA82CFA1FEA
:10092400AB2CF209F109F10A0319F20AAB2CF2011A
:10093400F101AB2C7B14FB1FAE2CF201FA1FAE2C81
:10094400FF30F200F100FA0DF20CAE2C0130FC0085
:10095400B02C0030FC00B02CFF30FC00FC08031964
:0E096400B42C11217108F0007208F100080097
:10097200831203137008F8007108F000F101F2010C
:10098200F301FB01FC019630F300FA017008F1005B
:0C0992007808F000F801F20127210800AD
:10099E00E12C803083160313DE00F42CC030DE0011
:1009AE00F42C9430DE00F42CD430DE00F42C8030A5
:1009BE00DE00F42C831603135E08013A0319D02CC3
:1009CE005E08023A0319D52C5E08033A0319D82C97
:1009DE005E08043A0319DB2CDE2C5F03F0005E0880
:1009EE00F0077008DE007008EB001A20831658100E
:1009FE00E101610860078400000803190E2D6108EB
:100A0E00600784000008EA00CE22E10A002D581487
:020A1E000800CE
:100A2000831603135E08D9005F08F1000130F0005F
:100A3000710803191F2DF00D7010FF3E192D70085D
:100A4000D600F0097008D70080305E078400700877
:0A0A5000800584137008800508007B
:100A5A00FF3083160313D300FF30D400FF30D500D4
:100A6A00FF3083129F01C0309F0483161F179F1700
:060A7A0083121F140800A6
:100A800083160313871107110712871207138713A1
:100A900083128711071187130713871207120A2081
:100AA0000A200A20871607168715172087110A20A3
:100AB0008715172087110A208715172087110A200C
:100AC00007128715172087110A208715172087110D
:100AD000871287178715172087110A208713071693
:100AE00087151720871107128715172087110A20ED
:100AF00087151720871107168715172087110A20D9
:100B000007128715172087118717071787160716EB
:0E0B10008715172087110A2083165814080035
:100B1E0083120313FB017308031D77080319E62DD7
:100B2E0072087606FA007708F3077E30031CA32DB1
:100B3E00F3020318E92DA62DF302031CEC2D720807
:100B4E00F8007108FC007008FD00F817F617031086
:100B5E00F201F101F0011830A1007D1CC02D7408C6
:100B6E00F00775080318750FF10776080318760F4E
:100B7E00F207F20CF10CF00CF80CFC0CFD0C03104F
:100B8E00A10BB42DF21BD02DF80DF00DF10DF20DC1
:100B9E00F3037B1B701CE22DF81FE22DF00A0319E4
:100BAE00F10A0319F20A031DE22DF20CF10CF00CFE
:100BBE00F30A0319E92DFA1FF2130030EE2D01305E
:100BCE008820EE2D0230AC20EE2D04307C2000006B
:020BDE0008000D
:100BE000B8208A110A128000840ADA0A0319DB0A83
:080BF000F003031DF02D0800C5
:100CF000223084004D3083120313F000FC30831641
:100D0000DA000530DB00F025A03084002F30F00041
:0E0D100049308316DA000630DB00F0250800BB
:101000008A1178268A153F308316031385008601DE
:101010008E309F00831286018A1140258A158A111D
:101020002D258A1506308316DE000730DF008A1171
:1010300010258A150C30EB008A111A208A15013010
:101040008316EB008A111A208A1501308316DE0000
:101050000130DF003930E0008A11CF248A150330D7
:10106000FB000830FC007730FD00FD0B3528FC0B41
:101070003528FB0B35280230DE000130DF0051300F
:10108000E0008A11CF248A150B30FB002630FC00CB
:101090005D30FD00FD0B4A28FC0B4A28FB0B4A285B
:1010A000000000000130EB008A111A208A1501307F
:1010B0008316DE000130DF005E30E0008A11CF24AD
:1010C0008A151A30FC00F830FD00FD0B6528FC0B7A
:1010D000652800000230DE000130DF004430E0000F
:1010E0008A11CF248A150230DE000A30DF004E302C
:1010F000E0008A11CF248A15DE018A11D7228A15D1
:101100007008CF007108D0008A11B9248A155A30AE
:10111000F400F530F5007930F6007D30F7008A11E3
:101120008F258A158A115A248A1570088316DC00C7
:101130007108DD005C08CF005D08D0000A30F400C3
:101140000030F5005C08F0005D08F1008A118F2086
:101150008A1570088316D100303070078312A20000
:101160000A30F4000030F50083165C08F0005D08DA
:10117000F1008A118F208A157808F0007908F100B3
:1011800070088316D100303070078312A3001A3024
:10119000FC00F830FD00FD0BCB28FC0BCB28000039
:1011A00001308316DE000630DF002230E0008A11B5
:1011B000CF248A150130DE000830DF00DF30E00088
:1011C0008A11D2238A158312851C39290130EF0038
:1011D00083126F0803193929051D38290130831638
:1011E000D20083165208031938298312B80A0A302C
:1011F000F4003808F0008A1109248A157808F000F4
:101200007008EF0030307007CF000A30F400380863
:10121000F0008A1109248A1570088316D200303034
:1012200070078312CE001A30FC00F830FD00FD0B71
:101230001729FC0B1729000002308316DE000A3044
:10124000DF004E30E0008A11CF248A15D2018312CC
:10125000EF010630FB001330FC00AD30FD00FD0B4C
:101260002F29FC0B2F29FB0B2F2900000000F12850
:10127000E8288312051DAD290130EF0083126F08A5
:101280000319AD29851CAC2901308316D2008316C1
:1012900052080319AC298312B80380303806F000D5
:1012A0008030003A700203186A29B8011A30FC0035
:1012B000F830FD00FD0B5A29FC0B5A2900000230C2
:1012C0008316DE000A30DF002730E0008A11CF24C9
:1012D0008A159D290A30F40083123808F0008A111B
:1012E00009248A157808F0007008EF003030700784
:1012F000CF000A30F4003808F0008A1109248A155A
:1013000070088316D200303070078312CE001A3076
:10131000FC00F830FD00FD0B8B29FC0B8B29000035
:1013200002308316DE000A30DF004E30E0008A1102
:10133000CF248A15D2018312EF010630FB0013304F
:10134000FC00AD30FD00FD0BA329FC0BA329FB0B1A
:10135000A3290000000047293E298312051A0F2AFD
:1013600006110619B5298610B62986148618BA29D9
:101370000610BB29061401308316EB008A111A20CF
:101380008A1501308316DE000130DF002A30E000CC
:101390008A11CF248A15CA30DE000130DF00FA300E
:1013A000E000E1018A11FB228A156430DE00013081
:1013B000DF00FA30E000E1018A11FB228A15831276
:1013C000851E0E2A01308316EB008A111A208A1519
:1013D00001308316DE000130DF00AC30E0008A11FE
:1013E000CF248A151A30FC00F830FD00FD0BF629D9
:1013F000FC0BF62900000230DE000130DF00BD30BA
:10140000E0008A11CF248A150230DE000A30DF00A6
:101410004E30E0008A11CF248A150F2ABB29803074
:1014200083123806F0008030013A7002031CC22A91
:1014300085192F2A06141A30FC00F830FD00FD0B28
:101440001F2AFC0B1F2A000002308316DE0010301A
:10145000DF00A830E0008A11CF248A15442A8312C5
:1014600006101A30FC00F830FD00FD0B352AFC0B8D
:10147000352A000002308316DE001030DF00AA306B
:10148000E0008A11CF248A1500305002031D4A2A39
:101490001E304F02031C6E2A831286100230831600
:1014A000DE000E30DF00CB30E0008A11CF248A1539
:1014B0001A30FC00F830FD00FD0B5C2AFC0B5C2AA6
:1014C00000008312061502308316DE000F30DF00A5
:1014D000CD30E0008A11CF248A15C12A0030500295
:1014E000031D742A19304F02031CA02A5008003C27
:1014F000031D7C2A4F081D3C031CA02A831286145E
:1015000002308316DE000E30DF00C730E0008A11A3
:10151000CF248A151A30FC00F830FD00FD0B8E2A0E
:10152000FC0B8E2A00008312061102308316DE00A7
:101530000F30DF00C930E0008A11CF248A15C12A9C
:101540008312861002308316DE000F30DF00A430D5
:10155000E0008A11CF248A151A30FC00F830FD0013
:10156000FD0BB02AFC0BB02A0000831206110230DA
:101570008316DE000E30DF00A630E0008A11CF2493
:101580008A15CE2A8312860102308316DE000E30C1
:10159000DF00A030E0008A11CF248A150230FB0062
:1015A0000430FC00BA30FD00FD0BD42AFC0BD42A19
:0A15B000FB0BD42A00007C28DC2A83
:0A0BF800303430342034433400342C
:060C0200303430340034F0
:100C08004634693472346534203444346534743479
:0C0C180065346334743465346434003493
:020C240000349A
:100C260053344D34413452345434203448344F34E0
:060C36004D34453400348A
:100C3C00503452344534533445344E3443344534B3
:040C4C003A34003402
:060C5000303430340034A2
:100C560049344E3449345434493441344C3449349B
:0A0C66005A3449344E344734003448
:100C7000543445344D3450343A3420342034203404
:100C800020342034533454344134543455345334A0
:020C900000342E
:080C920020342034203400342A
:040C9A0020340034CE
:040C9E0020340034CA
:040CA2004C3400349A
:040CA60020340034C2
:100CAA00543445344D3450343A34203420342034CA
:100CBA002034203453345434413454345534533466
:020CCA000034F4
:100CCC00503452344534533445344E344334453423
:040CDC003A34003472
:040CE0004634003462
:040CE4002034003484
:040CE8002034003480
:040CEC00413400345B
:02400E004A2F37
:00000001FF
